{
  "contracts/SchoolRegistrationSystem.sol": {
    "SchoolRegistrationSystem": {
      "abi": [
        {
          "inputs": [],
          "stateMutability": "nonpayable",
          "type": "constructor"
        },
        {
          "inputs": [
            {
              "internalType": "address",
              "name": "",
              "type": "address"
            },
            {
              "internalType": "uint256",
              "name": "",
              "type": "uint256"
            }
          ],
          "name": "admin",
          "outputs": [
            {
              "internalType": "uint256",
              "name": "",
              "type": "uint256"
            }
          ],
          "stateMutability": "view",
          "type": "function"
        },
        {
          "inputs": [],
          "name": "contractOwner",
          "outputs": [
            {
              "internalType": "address",
              "name": "",
              "type": "address"
            }
          ],
          "stateMutability": "view",
          "type": "function"
        },
        {
          "inputs": [
            {
              "internalType": "uint256",
              "name": "studentId",
              "type": "uint256"
            }
          ],
          "name": "getStudent",
          "outputs": [
            {
              "internalType": "string",
              "name": "",
              "type": "string"
            }
          ],
          "stateMutability": "view",
          "type": "function"
        },
        {
          "inputs": [
            {
              "internalType": "string",
              "name": "_name",
              "type": "string"
            }
          ],
          "name": "registerStudent",
          "outputs": [],
          "stateMutability": "nonpayable",
          "type": "function"
        },
        {
          "inputs": [
            {
              "internalType": "uint256",
              "name": "studentId",
              "type": "uint256"
            }
          ],
          "name": "removeStudent",
          "outputs": [],
          "stateMutability": "nonpayable",
          "type": "function"
        },
        {
          "inputs": [
            {
              "internalType": "uint256",
              "name": "",
              "type": "uint256"
            }
          ],
          "name": "students",
          "outputs": [
            {
              "internalType": "uint256",
              "name": "id",
              "type": "uint256"
            },
            {
              "internalType": "string",
              "name": "name",
              "type": "string"
            },
            {
              "internalType": "bool",
              "name": "isDeleted",
              "type": "bool"
            }
          ],
          "stateMutability": "view",
          "type": "function"
        }
      ],
      "evm": {
        "bytecode": {
          "linkReferences": {},
          "object": "6080604052348015600f57600080fd5b50336000806101000a81548173ffffffffffffffffffffffffffffffffffffffff021916908373ffffffffffffffffffffffffffffffffffffffff160217905550610e718061005f6000396000f3fe608060405234801561001057600080fd5b50600436106100625760003560e01c806306ead22e1461006757806308e1ede314610099578063642f9163146100c95780636af83845146100f957806371e1744514610115578063ce606ee014610131575b600080fd5b610081600480360381019061007c9190610640565b61014f565b60405161009093929190610727565b60405180910390f35b6100b360048036038101906100ae91906107c3565b61020e565b6040516100c09190610803565b60405180910390f35b6100e360048036038101906100de9190610640565b61023f565b6040516100f0919061081e565b60405180910390f35b610113600480360381019061010e9190610640565b61038a565b005b61012f600480360381019061012a9190610975565b610449565b005b6101396105d2565b60405161014691906109cd565b60405180910390f35b600160205280600052604060002060009150905080600001549080600101805461017890610a17565b80601f01602080910402602001604051908101604052809291908181526020018280546101a490610a17565b80156101f15780601f106101c6576101008083540402835291602001916101f1565b820191906000526020600020905b8154815290600101906020018083116101d457829003601f168201915b5050505050908060020160009054906101000a900460ff16905083565b6002602052816000526040600020818154811061022a57600080fd5b90600052602060002001600091509150505481565b60606001600083815260200190815260200160002060020160009054906101000a900460ff166102a4576040517f08c379a000000000000000000000000000000000000000000000000000000000815260040161029b90610a94565b60405180910390fd5b600060016000848152602001908152602001600020604051806060016040529081600082015481526020016001820180546102de90610a17565b80601f016020809104026020016040519081016040528092919081815260200182805461030a90610a17565b80156103575780601f1061032c57610100808354040283529160200191610357565b820191906000526020600020905b81548152906001019060200180831161033a57829003601f168201915b505050505081526020016002820160009054906101000a900460ff16151515158152505090508060200151915050919050565b60008054906101000a900473ffffffffffffffffffffffffffffffffffffffff1673ffffffffffffffffffffffffffffffffffffffff163373ffffffffffffffffffffffffffffffffffffffff1614610418576040517f08c379a000000000000000000000000000000000000000000000000000000000815260040161040f90610b26565b60405180910390fd5b600180600083815260200190815260200160002060020160006101000a81548160ff02191690831515021790555050565b60008054906101000a900473ffffffffffffffffffffffffffffffffffffffff1673ffffffffffffffffffffffffffffffffffffffff163373ffffffffffffffffffffffffffffffffffffffff16146104d7576040517f08c379a00000000000000000000000000000000000000000000000000000000081526004016104ce90610b26565b60405180910390fd5b600360008154809291906104ea90610b75565b919050555060405180606001604052806003548152602001828152602001600015158152506001600060035481526020019081526020016000206000820151816000015560208201518160010190816105439190610d69565b5060408201518160020160006101000a81548160ff021916908315150217905550905050600260003373ffffffffffffffffffffffffffffffffffffffff1673ffffffffffffffffffffffffffffffffffffffff168152602001908152602001600020600354908060018154018082558091505060019003906000526020600020016000909190919091505550565b60008054906101000a900473ffffffffffffffffffffffffffffffffffffffff1681565b6000604051905090565b600080fd5b600080fd5b6000819050919050565b61061d8161060a565b811461062857600080fd5b50565b60008135905061063a81610614565b92915050565b60006020828403121561065657610655610600565b5b60006106648482850161062b565b91505092915050565b6106768161060a565b82525050565b600081519050919050565b600082825260208201905092915050565b60005b838110156106b657808201518184015260208101905061069b565b60008484015250505050565b6000601f19601f8301169050919050565b60006106de8261067c565b6106e88185610687565b93506106f8818560208601610698565b610701816106c2565b840191505092915050565b60008115159050919050565b6107218161070c565b82525050565b600060608201905061073c600083018661066d565b818103602083015261074e81856106d3565b905061075d6040830184610718565b949350505050565b600073ffffffffffffffffffffffffffffffffffffffff82169050919050565b600061079082610765565b9050919050565b6107a081610785565b81146107ab57600080fd5b50565b6000813590506107bd81610797565b92915050565b600080604083850312156107da576107d9610600565b5b60006107e8858286016107ae565b92505060206107f98582860161062b565b9150509250929050565b6000602082019050610818600083018461066d565b92915050565b6000602082019050818103600083015261083881846106d3565b905092915050565b600080fd5b600080fd5b7f4e487b7100000000000000000000000000000000000000000000000000000000600052604160045260246000fd5b610882826106c2565b810181811067ffffffffffffffff821117156108a1576108a061084a565b5b80604052505050565b60006108b46105f6565b90506108c08282610879565b919050565b600067ffffffffffffffff8211156108e0576108df61084a565b5b6108e9826106c2565b9050602081019050919050565b82818337600083830152505050565b6000610918610913846108c5565b6108aa565b90508281526020810184848401111561093457610933610845565b5b61093f8482856108f6565b509392505050565b600082601f83011261095c5761095b610840565b5b813561096c848260208601610905565b91505092915050565b60006020828403121561098b5761098a610600565b5b600082013567ffffffffffffffff8111156109a9576109a8610605565b5b6109b584828501610947565b91505092915050565b6109c781610785565b82525050565b60006020820190506109e260008301846109be565b92915050565b7f4e487b7100000000000000000000000000000000000000000000000000000000600052602260045260246000fd5b60006002820490506001821680610a2f57607f821691505b602082108103610a4257610a416109e8565b5b50919050565b7f53747564656e74206e6f74207265676973746572656400000000000000000000600082015250565b6000610a7e601683610687565b9150610a8982610a48565b602082019050919050565b60006020820190508181036000830152610aad81610a71565b9050919050565b7f4f6e6c7920636f6e74726163742061646d696e2063616e20706572666f726d2060008201527f7468697320616374696f6e2e0000000000000000000000000000000000000000602082015250565b6000610b10602c83610687565b9150610b1b82610ab4565b604082019050919050565b60006020820190508181036000830152610b3f81610b03565b9050919050565b7f4e487b7100000000000000000000000000000000000000000000000000000000600052601160045260246000fd5b6000610b808261060a565b91507fffffffffffffffffffffffffffffffffffffffffffffffffffffffffffffffff8203610bb257610bb1610b46565b5b600182019050919050565b60008190508160005260206000209050919050565b60006020601f8301049050919050565b600082821b905092915050565b600060088302610c1f7fffffffffffffffffffffffffffffffffffffffffffffffffffffffffffffffff82610be2565b610c298683610be2565b95508019841693508086168417925050509392505050565b6000819050919050565b6000610c66610c61610c5c8461060a565b610c41565b61060a565b9050919050565b6000819050919050565b610c8083610c4b565b610c94610c8c82610c6d565b848454610bef565b825550505050565b600090565b610ca9610c9c565b610cb4818484610c77565b505050565b5b81811015610cd857610ccd600082610ca1565b600181019050610cba565b5050565b601f821115610d1d57610cee81610bbd565b610cf784610bd2565b81016020851015610d06578190505b610d1a610d1285610bd2565b830182610cb9565b50505b505050565b600082821c905092915050565b6000610d4060001984600802610d22565b1980831691505092915050565b6000610d598383610d2f565b9150826002028217905092915050565b610d728261067c565b67ffffffffffffffff811115610d8b57610d8a61084a565b5b610d958254610a17565b610da0828285610cdc565b600060209050601f831160018114610dd35760008415610dc1578287015190505b610dcb8582610d4d565b865550610e33565b601f198416610de186610bbd565b60005b82811015610e0957848901518255600182019150602085019450602081019050610de4565b86831015610e265784890151610e22601f891682610d2f565b8355505b6001600288020188555050505b50505050505056fea2646970667358221220071c94d26b914ec40f3690968fb0bdc9478ecb75db23fda973e12b9ba465d8e864736f6c634300081c0033",
          "opcodes": "PUSH1 0x80 PUSH1 0x40 MSTORE CALLVALUE DUP1 ISZERO PUSH1 0xF JUMPI PUSH1 0x0 DUP1 REVERT JUMPDEST POP CALLER PUSH1 0x0 DUP1 PUSH2 0x100 EXP DUP2 SLOAD DUP2 PUSH20 0xFFFFFFFFFFFFFFFFFFFFFFFFFFFFFFFFFFFFFFFF MUL NOT AND SWAP1 DUP4 PUSH20 0xFFFFFFFFFFFFFFFFFFFFFFFFFFFFFFFFFFFFFFFF AND MUL OR SWAP1 SSTORE POP PUSH2 0xE71 DUP1 PUSH2 0x5F PUSH1 0x0 CODECOPY PUSH1 0x0 RETURN INVALID PUSH1 0x80 PUSH1 0x40 MSTORE CALLVALUE DUP1 ISZERO PUSH2 0x10 JUMPI PUSH1 0x0 DUP1 REVERT JUMPDEST POP PUSH1 0x4 CALLDATASIZE LT PUSH2 0x62 JUMPI PUSH1 0x0 CALLDATALOAD PUSH1 0xE0 SHR DUP1 PUSH4 0x6EAD22E EQ PUSH2 0x67 JUMPI DUP1 PUSH4 0x8E1EDE3 EQ PUSH2 0x99 JUMPI DUP1 PUSH4 0x642F9163 EQ PUSH2 0xC9 JUMPI DUP1 PUSH4 0x6AF83845 EQ PUSH2 0xF9 JUMPI DUP1 PUSH4 0x71E17445 EQ PUSH2 0x115 JUMPI DUP1 PUSH4 0xCE606EE0 EQ PUSH2 0x131 JUMPI JUMPDEST PUSH1 0x0 DUP1 REVERT JUMPDEST PUSH2 0x81 PUSH1 0x4 DUP1 CALLDATASIZE SUB DUP2 ADD SWAP1 PUSH2 0x7C SWAP2 SWAP1 PUSH2 0x640 JUMP JUMPDEST PUSH2 0x14F JUMP JUMPDEST PUSH1 0x40 MLOAD PUSH2 0x90 SWAP4 SWAP3 SWAP2 SWAP1 PUSH2 0x727 JUMP JUMPDEST PUSH1 0x40 MLOAD DUP1 SWAP2 SUB SWAP1 RETURN JUMPDEST PUSH2 0xB3 PUSH1 0x4 DUP1 CALLDATASIZE SUB DUP2 ADD SWAP1 PUSH2 0xAE SWAP2 SWAP1 PUSH2 0x7C3 JUMP JUMPDEST PUSH2 0x20E JUMP JUMPDEST PUSH1 0x40 MLOAD PUSH2 0xC0 SWAP2 SWAP1 PUSH2 0x803 JUMP JUMPDEST PUSH1 0x40 MLOAD DUP1 SWAP2 SUB SWAP1 RETURN JUMPDEST PUSH2 0xE3 PUSH1 0x4 DUP1 CALLDATASIZE SUB DUP2 ADD SWAP1 PUSH2 0xDE SWAP2 SWAP1 PUSH2 0x640 JUMP JUMPDEST PUSH2 0x23F JUMP JUMPDEST PUSH1 0x40 MLOAD PUSH2 0xF0 SWAP2 SWAP1 PUSH2 0x81E JUMP JUMPDEST PUSH1 0x40 MLOAD DUP1 SWAP2 SUB SWAP1 RETURN JUMPDEST PUSH2 0x113 PUSH1 0x4 DUP1 CALLDATASIZE SUB DUP2 ADD SWAP1 PUSH2 0x10E SWAP2 SWAP1 PUSH2 0x640 JUMP JUMPDEST PUSH2 0x38A JUMP JUMPDEST STOP JUMPDEST PUSH2 0x12F PUSH1 0x4 DUP1 CALLDATASIZE SUB DUP2 ADD SWAP1 PUSH2 0x12A SWAP2 SWAP1 PUSH2 0x975 JUMP JUMPDEST PUSH2 0x449 JUMP JUMPDEST STOP JUMPDEST PUSH2 0x139 PUSH2 0x5D2 JUMP JUMPDEST PUSH1 0x40 MLOAD PUSH2 0x146 SWAP2 SWAP1 PUSH2 0x9CD JUMP JUMPDEST PUSH1 0x40 MLOAD DUP1 SWAP2 SUB SWAP1 RETURN JUMPDEST PUSH1 0x1 PUSH1 0x20 MSTORE DUP1 PUSH1 0x0 MSTORE PUSH1 0x40 PUSH1 0x0 KECCAK256 PUSH1 0x0 SWAP2 POP SWAP1 POP DUP1 PUSH1 0x0 ADD SLOAD SWAP1 DUP1 PUSH1 0x1 ADD DUP1 SLOAD PUSH2 0x178 SWAP1 PUSH2 0xA17 JUMP JUMPDEST DUP1 PUSH1 0x1F ADD PUSH1 0x20 DUP1 SWAP2 DIV MUL PUSH1 0x20 ADD PUSH1 0x40 MLOAD SWAP1 DUP2 ADD PUSH1 0x40 MSTORE DUP1 SWAP3 SWAP2 SWAP1 DUP2 DUP2 MSTORE PUSH1 0x20 ADD DUP3 DUP1 SLOAD PUSH2 0x1A4 SWAP1 PUSH2 0xA17 JUMP JUMPDEST DUP1 ISZERO PUSH2 0x1F1 JUMPI DUP1 PUSH1 0x1F LT PUSH2 0x1C6 JUMPI PUSH2 0x100 DUP1 DUP4 SLOAD DIV MUL DUP4 MSTORE SWAP2 PUSH1 0x20 ADD SWAP2 PUSH2 0x1F1 JUMP JUMPDEST DUP3 ADD SWAP2 SWAP1 PUSH1 0x0 MSTORE PUSH1 0x20 PUSH1 0x0 KECCAK256 SWAP1 JUMPDEST DUP2 SLOAD DUP2 MSTORE SWAP1 PUSH1 0x1 ADD SWAP1 PUSH1 0x20 ADD DUP1 DUP4 GT PUSH2 0x1D4 JUMPI DUP3 SWAP1 SUB PUSH1 0x1F AND DUP3 ADD SWAP2 JUMPDEST POP POP POP POP POP SWAP1 DUP1 PUSH1 0x2 ADD PUSH1 0x0 SWAP1 SLOAD SWAP1 PUSH2 0x100 EXP SWAP1 DIV PUSH1 0xFF AND SWAP1 POP DUP4 JUMP JUMPDEST PUSH1 0x2 PUSH1 0x20 MSTORE DUP2 PUSH1 0x0 MSTORE PUSH1 0x40 PUSH1 0x0 KECCAK256 DUP2 DUP2 SLOAD DUP2 LT PUSH2 0x22A JUMPI PUSH1 0x0 DUP1 REVERT JUMPDEST SWAP1 PUSH1 0x0 MSTORE PUSH1 0x20 PUSH1 0x0 KECCAK256 ADD PUSH1 0x0 SWAP2 POP SWAP2 POP POP SLOAD DUP2 JUMP JUMPDEST PUSH1 0x60 PUSH1 0x1 PUSH1 0x0 DUP4 DUP2 MSTORE PUSH1 0x20 ADD SWAP1 DUP2 MSTORE PUSH1 0x20 ADD PUSH1 0x0 KECCAK256 PUSH1 0x2 ADD PUSH1 0x0 SWAP1 SLOAD SWAP1 PUSH2 0x100 EXP SWAP1 DIV PUSH1 0xFF AND PUSH2 0x2A4 JUMPI PUSH1 0x40 MLOAD PUSH32 0x8C379A000000000000000000000000000000000000000000000000000000000 DUP2 MSTORE PUSH1 0x4 ADD PUSH2 0x29B SWAP1 PUSH2 0xA94 JUMP JUMPDEST PUSH1 0x40 MLOAD DUP1 SWAP2 SUB SWAP1 REVERT JUMPDEST PUSH1 0x0 PUSH1 0x1 PUSH1 0x0 DUP5 DUP2 MSTORE PUSH1 0x20 ADD SWAP1 DUP2 MSTORE PUSH1 0x20 ADD PUSH1 0x0 KECCAK256 PUSH1 0x40 MLOAD DUP1 PUSH1 0x60 ADD PUSH1 0x40 MSTORE SWAP1 DUP2 PUSH1 0x0 DUP3 ADD SLOAD DUP2 MSTORE PUSH1 0x20 ADD PUSH1 0x1 DUP3 ADD DUP1 SLOAD PUSH2 0x2DE SWAP1 PUSH2 0xA17 JUMP JUMPDEST DUP1 PUSH1 0x1F ADD PUSH1 0x20 DUP1 SWAP2 DIV MUL PUSH1 0x20 ADD PUSH1 0x40 MLOAD SWAP1 DUP2 ADD PUSH1 0x40 MSTORE DUP1 SWAP3 SWAP2 SWAP1 DUP2 DUP2 MSTORE PUSH1 0x20 ADD DUP3 DUP1 SLOAD PUSH2 0x30A SWAP1 PUSH2 0xA17 JUMP JUMPDEST DUP1 ISZERO PUSH2 0x357 JUMPI DUP1 PUSH1 0x1F LT PUSH2 0x32C JUMPI PUSH2 0x100 DUP1 DUP4 SLOAD DIV MUL DUP4 MSTORE SWAP2 PUSH1 0x20 ADD SWAP2 PUSH2 0x357 JUMP JUMPDEST DUP3 ADD SWAP2 SWAP1 PUSH1 0x0 MSTORE PUSH1 0x20 PUSH1 0x0 KECCAK256 SWAP1 JUMPDEST DUP2 SLOAD DUP2 MSTORE SWAP1 PUSH1 0x1 ADD SWAP1 PUSH1 0x20 ADD DUP1 DUP4 GT PUSH2 0x33A JUMPI DUP3 SWAP1 SUB PUSH1 0x1F AND DUP3 ADD SWAP2 JUMPDEST POP POP POP POP POP DUP2 MSTORE PUSH1 0x20 ADD PUSH1 0x2 DUP3 ADD PUSH1 0x0 SWAP1 SLOAD SWAP1 PUSH2 0x100 EXP SWAP1 DIV PUSH1 0xFF AND ISZERO ISZERO ISZERO ISZERO DUP2 MSTORE POP POP SWAP1 POP DUP1 PUSH1 0x20 ADD MLOAD SWAP2 POP POP SWAP2 SWAP1 POP JUMP JUMPDEST PUSH1 0x0 DUP1 SLOAD SWAP1 PUSH2 0x100 EXP SWAP1 DIV PUSH20 0xFFFFFFFFFFFFFFFFFFFFFFFFFFFFFFFFFFFFFFFF AND PUSH20 0xFFFFFFFFFFFFFFFFFFFFFFFFFFFFFFFFFFFFFFFF AND CALLER PUSH20 0xFFFFFFFFFFFFFFFFFFFFFFFFFFFFFFFFFFFFFFFF AND EQ PUSH2 0x418 JUMPI PUSH1 0x40 MLOAD PUSH32 0x8C379A000000000000000000000000000000000000000000000000000000000 DUP2 MSTORE PUSH1 0x4 ADD PUSH2 0x40F SWAP1 PUSH2 0xB26 JUMP JUMPDEST PUSH1 0x40 MLOAD DUP1 SWAP2 SUB SWAP1 REVERT JUMPDEST PUSH1 0x1 DUP1 PUSH1 0x0 DUP4 DUP2 MSTORE PUSH1 0x20 ADD SWAP1 DUP2 MSTORE PUSH1 0x20 ADD PUSH1 0x0 KECCAK256 PUSH1 0x2 ADD PUSH1 0x0 PUSH2 0x100 EXP DUP2 SLOAD DUP2 PUSH1 0xFF MUL NOT AND SWAP1 DUP4 ISZERO ISZERO MUL OR SWAP1 SSTORE POP POP JUMP JUMPDEST PUSH1 0x0 DUP1 SLOAD SWAP1 PUSH2 0x100 EXP SWAP1 DIV PUSH20 0xFFFFFFFFFFFFFFFFFFFFFFFFFFFFFFFFFFFFFFFF AND PUSH20 0xFFFFFFFFFFFFFFFFFFFFFFFFFFFFFFFFFFFFFFFF AND CALLER PUSH20 0xFFFFFFFFFFFFFFFFFFFFFFFFFFFFFFFFFFFFFFFF AND EQ PUSH2 0x4D7 JUMPI PUSH1 0x40 MLOAD PUSH32 0x8C379A000000000000000000000000000000000000000000000000000000000 DUP2 MSTORE PUSH1 0x4 ADD PUSH2 0x4CE SWAP1 PUSH2 0xB26 JUMP JUMPDEST PUSH1 0x40 MLOAD DUP1 SWAP2 SUB SWAP1 REVERT JUMPDEST PUSH1 0x3 PUSH1 0x0 DUP2 SLOAD DUP1 SWAP3 SWAP2 SWAP1 PUSH2 0x4EA SWAP1 PUSH2 0xB75 JUMP JUMPDEST SWAP2 SWAP1 POP SSTORE POP PUSH1 0x40 MLOAD DUP1 PUSH1 0x60 ADD PUSH1 0x40 MSTORE DUP1 PUSH1 0x3 SLOAD DUP2 MSTORE PUSH1 0x20 ADD DUP3 DUP2 MSTORE PUSH1 0x20 ADD PUSH1 0x0 ISZERO ISZERO DUP2 MSTORE POP PUSH1 0x1 PUSH1 0x0 PUSH1 0x3 SLOAD DUP2 MSTORE PUSH1 0x20 ADD SWAP1 DUP2 MSTORE PUSH1 0x20 ADD PUSH1 0x0 KECCAK256 PUSH1 0x0 DUP3 ADD MLOAD DUP2 PUSH1 0x0 ADD SSTORE PUSH1 0x20 DUP3 ADD MLOAD DUP2 PUSH1 0x1 ADD SWAP1 DUP2 PUSH2 0x543 SWAP2 SWAP1 PUSH2 0xD69 JUMP JUMPDEST POP PUSH1 0x40 DUP3 ADD MLOAD DUP2 PUSH1 0x2 ADD PUSH1 0x0 PUSH2 0x100 EXP DUP2 SLOAD DUP2 PUSH1 0xFF MUL NOT AND SWAP1 DUP4 ISZERO ISZERO MUL OR SWAP1 SSTORE POP SWAP1 POP POP PUSH1 0x2 PUSH1 0x0 CALLER PUSH20 0xFFFFFFFFFFFFFFFFFFFFFFFFFFFFFFFFFFFFFFFF AND PUSH20 0xFFFFFFFFFFFFFFFFFFFFFFFFFFFFFFFFFFFFFFFF AND DUP2 MSTORE PUSH1 0x20 ADD SWAP1 DUP2 MSTORE PUSH1 0x20 ADD PUSH1 0x0 KECCAK256 PUSH1 0x3 SLOAD SWAP1 DUP1 PUSH1 0x1 DUP2 SLOAD ADD DUP1 DUP3 SSTORE DUP1 SWAP2 POP POP PUSH1 0x1 SWAP1 SUB SWAP1 PUSH1 0x0 MSTORE PUSH1 0x20 PUSH1 0x0 KECCAK256 ADD PUSH1 0x0 SWAP1 SWAP2 SWAP1 SWAP2 SWAP1 SWAP2 POP SSTORE POP JUMP JUMPDEST PUSH1 0x0 DUP1 SLOAD SWAP1 PUSH2 0x100 EXP SWAP1 DIV PUSH20 0xFFFFFFFFFFFFFFFFFFFFFFFFFFFFFFFFFFFFFFFF AND DUP2 JUMP JUMPDEST PUSH1 0x0 PUSH1 0x40 MLOAD SWAP1 POP SWAP1 JUMP JUMPDEST PUSH1 0x0 DUP1 REVERT JUMPDEST PUSH1 0x0 DUP1 REVERT JUMPDEST PUSH1 0x0 DUP2 SWAP1 POP SWAP2 SWAP1 POP JUMP JUMPDEST PUSH2 0x61D DUP2 PUSH2 0x60A JUMP JUMPDEST DUP2 EQ PUSH2 0x628 JUMPI PUSH1 0x0 DUP1 REVERT JUMPDEST POP JUMP JUMPDEST PUSH1 0x0 DUP2 CALLDATALOAD SWAP1 POP PUSH2 0x63A DUP2 PUSH2 0x614 JUMP JUMPDEST SWAP3 SWAP2 POP POP JUMP JUMPDEST PUSH1 0x0 PUSH1 0x20 DUP3 DUP5 SUB SLT ISZERO PUSH2 0x656 JUMPI PUSH2 0x655 PUSH2 0x600 JUMP JUMPDEST JUMPDEST PUSH1 0x0 PUSH2 0x664 DUP5 DUP3 DUP6 ADD PUSH2 0x62B JUMP JUMPDEST SWAP2 POP POP SWAP3 SWAP2 POP POP JUMP JUMPDEST PUSH2 0x676 DUP2 PUSH2 0x60A JUMP JUMPDEST DUP3 MSTORE POP POP JUMP JUMPDEST PUSH1 0x0 DUP2 MLOAD SWAP1 POP SWAP2 SWAP1 POP JUMP JUMPDEST PUSH1 0x0 DUP3 DUP3 MSTORE PUSH1 0x20 DUP3 ADD SWAP1 POP SWAP3 SWAP2 POP POP JUMP JUMPDEST PUSH1 0x0 JUMPDEST DUP4 DUP2 LT ISZERO PUSH2 0x6B6 JUMPI DUP1 DUP3 ADD MLOAD DUP2 DUP5 ADD MSTORE PUSH1 0x20 DUP2 ADD SWAP1 POP PUSH2 0x69B JUMP JUMPDEST PUSH1 0x0 DUP5 DUP5 ADD MSTORE POP POP POP POP JUMP JUMPDEST PUSH1 0x0 PUSH1 0x1F NOT PUSH1 0x1F DUP4 ADD AND SWAP1 POP SWAP2 SWAP1 POP JUMP JUMPDEST PUSH1 0x0 PUSH2 0x6DE DUP3 PUSH2 0x67C JUMP JUMPDEST PUSH2 0x6E8 DUP2 DUP6 PUSH2 0x687 JUMP JUMPDEST SWAP4 POP PUSH2 0x6F8 DUP2 DUP6 PUSH1 0x20 DUP7 ADD PUSH2 0x698 JUMP JUMPDEST PUSH2 0x701 DUP2 PUSH2 0x6C2 JUMP JUMPDEST DUP5 ADD SWAP2 POP POP SWAP3 SWAP2 POP POP JUMP JUMPDEST PUSH1 0x0 DUP2 ISZERO ISZERO SWAP1 POP SWAP2 SWAP1 POP JUMP JUMPDEST PUSH2 0x721 DUP2 PUSH2 0x70C JUMP JUMPDEST DUP3 MSTORE POP POP JUMP JUMPDEST PUSH1 0x0 PUSH1 0x60 DUP3 ADD SWAP1 POP PUSH2 0x73C PUSH1 0x0 DUP4 ADD DUP7 PUSH2 0x66D JUMP JUMPDEST DUP2 DUP2 SUB PUSH1 0x20 DUP4 ADD MSTORE PUSH2 0x74E DUP2 DUP6 PUSH2 0x6D3 JUMP JUMPDEST SWAP1 POP PUSH2 0x75D PUSH1 0x40 DUP4 ADD DUP5 PUSH2 0x718 JUMP JUMPDEST SWAP5 SWAP4 POP POP POP POP JUMP JUMPDEST PUSH1 0x0 PUSH20 0xFFFFFFFFFFFFFFFFFFFFFFFFFFFFFFFFFFFFFFFF DUP3 AND SWAP1 POP SWAP2 SWAP1 POP JUMP JUMPDEST PUSH1 0x0 PUSH2 0x790 DUP3 PUSH2 0x765 JUMP JUMPDEST SWAP1 POP SWAP2 SWAP1 POP JUMP JUMPDEST PUSH2 0x7A0 DUP2 PUSH2 0x785 JUMP JUMPDEST DUP2 EQ PUSH2 0x7AB JUMPI PUSH1 0x0 DUP1 REVERT JUMPDEST POP JUMP JUMPDEST PUSH1 0x0 DUP2 CALLDATALOAD SWAP1 POP PUSH2 0x7BD DUP2 PUSH2 0x797 JUMP JUMPDEST SWAP3 SWAP2 POP POP JUMP JUMPDEST PUSH1 0x0 DUP1 PUSH1 0x40 DUP4 DUP6 SUB SLT ISZERO PUSH2 0x7DA JUMPI PUSH2 0x7D9 PUSH2 0x600 JUMP JUMPDEST JUMPDEST PUSH1 0x0 PUSH2 0x7E8 DUP6 DUP3 DUP7 ADD PUSH2 0x7AE JUMP JUMPDEST SWAP3 POP POP PUSH1 0x20 PUSH2 0x7F9 DUP6 DUP3 DUP7 ADD PUSH2 0x62B JUMP JUMPDEST SWAP2 POP POP SWAP3 POP SWAP3 SWAP1 POP JUMP JUMPDEST PUSH1 0x0 PUSH1 0x20 DUP3 ADD SWAP1 POP PUSH2 0x818 PUSH1 0x0 DUP4 ADD DUP5 PUSH2 0x66D JUMP JUMPDEST SWAP3 SWAP2 POP POP JUMP JUMPDEST PUSH1 0x0 PUSH1 0x20 DUP3 ADD SWAP1 POP DUP2 DUP2 SUB PUSH1 0x0 DUP4 ADD MSTORE PUSH2 0x838 DUP2 DUP5 PUSH2 0x6D3 JUMP JUMPDEST SWAP1 POP SWAP3 SWAP2 POP POP JUMP JUMPDEST PUSH1 0x0 DUP1 REVERT JUMPDEST PUSH1 0x0 DUP1 REVERT JUMPDEST PUSH32 0x4E487B7100000000000000000000000000000000000000000000000000000000 PUSH1 0x0 MSTORE PUSH1 0x41 PUSH1 0x4 MSTORE PUSH1 0x24 PUSH1 0x0 REVERT JUMPDEST PUSH2 0x882 DUP3 PUSH2 0x6C2 JUMP JUMPDEST DUP2 ADD DUP2 DUP2 LT PUSH8 0xFFFFFFFFFFFFFFFF DUP3 GT OR ISZERO PUSH2 0x8A1 JUMPI PUSH2 0x8A0 PUSH2 0x84A JUMP JUMPDEST JUMPDEST DUP1 PUSH1 0x40 MSTORE POP POP POP JUMP JUMPDEST PUSH1 0x0 PUSH2 0x8B4 PUSH2 0x5F6 JUMP JUMPDEST SWAP1 POP PUSH2 0x8C0 DUP3 DUP3 PUSH2 0x879 JUMP JUMPDEST SWAP2 SWAP1 POP JUMP JUMPDEST PUSH1 0x0 PUSH8 0xFFFFFFFFFFFFFFFF DUP3 GT ISZERO PUSH2 0x8E0 JUMPI PUSH2 0x8DF PUSH2 0x84A JUMP JUMPDEST JUMPDEST PUSH2 0x8E9 DUP3 PUSH2 0x6C2 JUMP JUMPDEST SWAP1 POP PUSH1 0x20 DUP2 ADD SWAP1 POP SWAP2 SWAP1 POP JUMP JUMPDEST DUP3 DUP2 DUP4 CALLDATACOPY PUSH1 0x0 DUP4 DUP4 ADD MSTORE POP POP POP JUMP JUMPDEST PUSH1 0x0 PUSH2 0x918 PUSH2 0x913 DUP5 PUSH2 0x8C5 JUMP JUMPDEST PUSH2 0x8AA JUMP JUMPDEST SWAP1 POP DUP3 DUP2 MSTORE PUSH1 0x20 DUP2 ADD DUP5 DUP5 DUP5 ADD GT ISZERO PUSH2 0x934 JUMPI PUSH2 0x933 PUSH2 0x845 JUMP JUMPDEST JUMPDEST PUSH2 0x93F DUP5 DUP3 DUP6 PUSH2 0x8F6 JUMP JUMPDEST POP SWAP4 SWAP3 POP POP POP JUMP JUMPDEST PUSH1 0x0 DUP3 PUSH1 0x1F DUP4 ADD SLT PUSH2 0x95C JUMPI PUSH2 0x95B PUSH2 0x840 JUMP JUMPDEST JUMPDEST DUP2 CALLDATALOAD PUSH2 0x96C DUP5 DUP3 PUSH1 0x20 DUP7 ADD PUSH2 0x905 JUMP JUMPDEST SWAP2 POP POP SWAP3 SWAP2 POP POP JUMP JUMPDEST PUSH1 0x0 PUSH1 0x20 DUP3 DUP5 SUB SLT ISZERO PUSH2 0x98B JUMPI PUSH2 0x98A PUSH2 0x600 JUMP JUMPDEST JUMPDEST PUSH1 0x0 DUP3 ADD CALLDATALOAD PUSH8 0xFFFFFFFFFFFFFFFF DUP2 GT ISZERO PUSH2 0x9A9 JUMPI PUSH2 0x9A8 PUSH2 0x605 JUMP JUMPDEST JUMPDEST PUSH2 0x9B5 DUP5 DUP3 DUP6 ADD PUSH2 0x947 JUMP JUMPDEST SWAP2 POP POP SWAP3 SWAP2 POP POP JUMP JUMPDEST PUSH2 0x9C7 DUP2 PUSH2 0x785 JUMP JUMPDEST DUP3 MSTORE POP POP JUMP JUMPDEST PUSH1 0x0 PUSH1 0x20 DUP3 ADD SWAP1 POP PUSH2 0x9E2 PUSH1 0x0 DUP4 ADD DUP5 PUSH2 0x9BE JUMP JUMPDEST SWAP3 SWAP2 POP POP JUMP JUMPDEST PUSH32 0x4E487B7100000000000000000000000000000000000000000000000000000000 PUSH1 0x0 MSTORE PUSH1 0x22 PUSH1 0x4 MSTORE PUSH1 0x24 PUSH1 0x0 REVERT JUMPDEST PUSH1 0x0 PUSH1 0x2 DUP3 DIV SWAP1 POP PUSH1 0x1 DUP3 AND DUP1 PUSH2 0xA2F JUMPI PUSH1 0x7F DUP3 AND SWAP2 POP JUMPDEST PUSH1 0x20 DUP3 LT DUP2 SUB PUSH2 0xA42 JUMPI PUSH2 0xA41 PUSH2 0x9E8 JUMP JUMPDEST JUMPDEST POP SWAP2 SWAP1 POP JUMP JUMPDEST PUSH32 0x53747564656E74206E6F74207265676973746572656400000000000000000000 PUSH1 0x0 DUP3 ADD MSTORE POP JUMP JUMPDEST PUSH1 0x0 PUSH2 0xA7E PUSH1 0x16 DUP4 PUSH2 0x687 JUMP JUMPDEST SWAP2 POP PUSH2 0xA89 DUP3 PUSH2 0xA48 JUMP JUMPDEST PUSH1 0x20 DUP3 ADD SWAP1 POP SWAP2 SWAP1 POP JUMP JUMPDEST PUSH1 0x0 PUSH1 0x20 DUP3 ADD SWAP1 POP DUP2 DUP2 SUB PUSH1 0x0 DUP4 ADD MSTORE PUSH2 0xAAD DUP2 PUSH2 0xA71 JUMP JUMPDEST SWAP1 POP SWAP2 SWAP1 POP JUMP JUMPDEST PUSH32 0x4F6E6C7920636F6E74726163742061646D696E2063616E20706572666F726D20 PUSH1 0x0 DUP3 ADD MSTORE PUSH32 0x7468697320616374696F6E2E0000000000000000000000000000000000000000 PUSH1 0x20 DUP3 ADD MSTORE POP JUMP JUMPDEST PUSH1 0x0 PUSH2 0xB10 PUSH1 0x2C DUP4 PUSH2 0x687 JUMP JUMPDEST SWAP2 POP PUSH2 0xB1B DUP3 PUSH2 0xAB4 JUMP JUMPDEST PUSH1 0x40 DUP3 ADD SWAP1 POP SWAP2 SWAP1 POP JUMP JUMPDEST PUSH1 0x0 PUSH1 0x20 DUP3 ADD SWAP1 POP DUP2 DUP2 SUB PUSH1 0x0 DUP4 ADD MSTORE PUSH2 0xB3F DUP2 PUSH2 0xB03 JUMP JUMPDEST SWAP1 POP SWAP2 SWAP1 POP JUMP JUMPDEST PUSH32 0x4E487B7100000000000000000000000000000000000000000000000000000000 PUSH1 0x0 MSTORE PUSH1 0x11 PUSH1 0x4 MSTORE PUSH1 0x24 PUSH1 0x0 REVERT JUMPDEST PUSH1 0x0 PUSH2 0xB80 DUP3 PUSH2 0x60A JUMP JUMPDEST SWAP2 POP PUSH32 0xFFFFFFFFFFFFFFFFFFFFFFFFFFFFFFFFFFFFFFFFFFFFFFFFFFFFFFFFFFFFFFFF DUP3 SUB PUSH2 0xBB2 JUMPI PUSH2 0xBB1 PUSH2 0xB46 JUMP JUMPDEST JUMPDEST PUSH1 0x1 DUP3 ADD SWAP1 POP SWAP2 SWAP1 POP JUMP JUMPDEST PUSH1 0x0 DUP2 SWAP1 POP DUP2 PUSH1 0x0 MSTORE PUSH1 0x20 PUSH1 0x0 KECCAK256 SWAP1 POP SWAP2 SWAP1 POP JUMP JUMPDEST PUSH1 0x0 PUSH1 0x20 PUSH1 0x1F DUP4 ADD DIV SWAP1 POP SWAP2 SWAP1 POP JUMP JUMPDEST PUSH1 0x0 DUP3 DUP3 SHL SWAP1 POP SWAP3 SWAP2 POP POP JUMP JUMPDEST PUSH1 0x0 PUSH1 0x8 DUP4 MUL PUSH2 0xC1F PUSH32 0xFFFFFFFFFFFFFFFFFFFFFFFFFFFFFFFFFFFFFFFFFFFFFFFFFFFFFFFFFFFFFFFF DUP3 PUSH2 0xBE2 JUMP JUMPDEST PUSH2 0xC29 DUP7 DUP4 PUSH2 0xBE2 JUMP JUMPDEST SWAP6 POP DUP1 NOT DUP5 AND SWAP4 POP DUP1 DUP7 AND DUP5 OR SWAP3 POP POP POP SWAP4 SWAP3 POP POP POP JUMP JUMPDEST PUSH1 0x0 DUP2 SWAP1 POP SWAP2 SWAP1 POP JUMP JUMPDEST PUSH1 0x0 PUSH2 0xC66 PUSH2 0xC61 PUSH2 0xC5C DUP5 PUSH2 0x60A JUMP JUMPDEST PUSH2 0xC41 JUMP JUMPDEST PUSH2 0x60A JUMP JUMPDEST SWAP1 POP SWAP2 SWAP1 POP JUMP JUMPDEST PUSH1 0x0 DUP2 SWAP1 POP SWAP2 SWAP1 POP JUMP JUMPDEST PUSH2 0xC80 DUP4 PUSH2 0xC4B JUMP JUMPDEST PUSH2 0xC94 PUSH2 0xC8C DUP3 PUSH2 0xC6D JUMP JUMPDEST DUP5 DUP5 SLOAD PUSH2 0xBEF JUMP JUMPDEST DUP3 SSTORE POP POP POP POP JUMP JUMPDEST PUSH1 0x0 SWAP1 JUMP JUMPDEST PUSH2 0xCA9 PUSH2 0xC9C JUMP JUMPDEST PUSH2 0xCB4 DUP2 DUP5 DUP5 PUSH2 0xC77 JUMP JUMPDEST POP POP POP JUMP JUMPDEST JUMPDEST DUP2 DUP2 LT ISZERO PUSH2 0xCD8 JUMPI PUSH2 0xCCD PUSH1 0x0 DUP3 PUSH2 0xCA1 JUMP JUMPDEST PUSH1 0x1 DUP2 ADD SWAP1 POP PUSH2 0xCBA JUMP JUMPDEST POP POP JUMP JUMPDEST PUSH1 0x1F DUP3 GT ISZERO PUSH2 0xD1D JUMPI PUSH2 0xCEE DUP2 PUSH2 0xBBD JUMP JUMPDEST PUSH2 0xCF7 DUP5 PUSH2 0xBD2 JUMP JUMPDEST DUP2 ADD PUSH1 0x20 DUP6 LT ISZERO PUSH2 0xD06 JUMPI DUP2 SWAP1 POP JUMPDEST PUSH2 0xD1A PUSH2 0xD12 DUP6 PUSH2 0xBD2 JUMP JUMPDEST DUP4 ADD DUP3 PUSH2 0xCB9 JUMP JUMPDEST POP POP JUMPDEST POP POP POP JUMP JUMPDEST PUSH1 0x0 DUP3 DUP3 SHR SWAP1 POP SWAP3 SWAP2 POP POP JUMP JUMPDEST PUSH1 0x0 PUSH2 0xD40 PUSH1 0x0 NOT DUP5 PUSH1 0x8 MUL PUSH2 0xD22 JUMP JUMPDEST NOT DUP1 DUP4 AND SWAP2 POP POP SWAP3 SWAP2 POP POP JUMP JUMPDEST PUSH1 0x0 PUSH2 0xD59 DUP4 DUP4 PUSH2 0xD2F JUMP JUMPDEST SWAP2 POP DUP3 PUSH1 0x2 MUL DUP3 OR SWAP1 POP SWAP3 SWAP2 POP POP JUMP JUMPDEST PUSH2 0xD72 DUP3 PUSH2 0x67C JUMP JUMPDEST PUSH8 0xFFFFFFFFFFFFFFFF DUP2 GT ISZERO PUSH2 0xD8B JUMPI PUSH2 0xD8A PUSH2 0x84A JUMP JUMPDEST JUMPDEST PUSH2 0xD95 DUP3 SLOAD PUSH2 0xA17 JUMP JUMPDEST PUSH2 0xDA0 DUP3 DUP3 DUP6 PUSH2 0xCDC JUMP JUMPDEST PUSH1 0x0 PUSH1 0x20 SWAP1 POP PUSH1 0x1F DUP4 GT PUSH1 0x1 DUP2 EQ PUSH2 0xDD3 JUMPI PUSH1 0x0 DUP5 ISZERO PUSH2 0xDC1 JUMPI DUP3 DUP8 ADD MLOAD SWAP1 POP JUMPDEST PUSH2 0xDCB DUP6 DUP3 PUSH2 0xD4D JUMP JUMPDEST DUP7 SSTORE POP PUSH2 0xE33 JUMP JUMPDEST PUSH1 0x1F NOT DUP5 AND PUSH2 0xDE1 DUP7 PUSH2 0xBBD JUMP JUMPDEST PUSH1 0x0 JUMPDEST DUP3 DUP2 LT ISZERO PUSH2 0xE09 JUMPI DUP5 DUP10 ADD MLOAD DUP3 SSTORE PUSH1 0x1 DUP3 ADD SWAP2 POP PUSH1 0x20 DUP6 ADD SWAP5 POP PUSH1 0x20 DUP2 ADD SWAP1 POP PUSH2 0xDE4 JUMP JUMPDEST DUP7 DUP4 LT ISZERO PUSH2 0xE26 JUMPI DUP5 DUP10 ADD MLOAD PUSH2 0xE22 PUSH1 0x1F DUP10 AND DUP3 PUSH2 0xD2F JUMP JUMPDEST DUP4 SSTORE POP JUMPDEST PUSH1 0x1 PUSH1 0x2 DUP9 MUL ADD DUP9 SSTORE POP POP POP JUMPDEST POP POP POP POP POP POP JUMP INVALID LOG2 PUSH5 0x6970667358 0x22 SLT KECCAK256 SMOD SHR SWAP5 0xD2 PUSH12 0x914EC40F3690968FB0BDC947 DUP15 0xCB PUSH22 0xDB23FDA973E12B9BA465D8E864736F6C634300081C00 CALLER "
        },
        "methodIdentifiers": {
          "admin(address,uint256)": "08e1ede3",
          "contractOwner()": "ce606ee0",
          "getStudent(uint256)": "642f9163",
          "registerStudent(string)": "71e17445",
          "removeStudent(uint256)": "6af83845",
          "students(uint256)": "06ead22e"
        }
      }
    }
  }
}